:020000003C289A
:10000800DF00030E8301A6000A08A7008A010B1D62
:100018001128A00A0319A10A0B118B1C23280130EF
:10002800A206221C1A283F30A3001C282A30A3004D
:100038008312870123088700A001A1018B102708DC
:0C0048008A00260E8300DF0E5F0E090008
:0C005400831225088A002408820008009E
:100060002A208A110A128000840AA40A0319A50A08
:08007000D003031D3028080035
:100078008316011381128B178B160B162C308500F3
:100088008312850183168701831287010B118B1058
:10009800A001A10122102A30A3002A3087002108DC
:1000A800033A031D5928E7302006031D5E28A001E6
:0800B800A101870953285F280C
:02400E00F2318D
:00000001FF
